:020000040800F2
:10000000FF4F0020ED5E01080D4400081944000870
:100010002144000829440008314400080000000081
:10002000000000000000000000000000394400084B
:100030004544000800000000514400085D440008E9
:10004000355F0108355F0108355F0108355F01083C
:10005000355F0108355F01086D440008355F010810
:10006000355F0108355F0108355F0108355F01081C
:10007000355F0108355F0108355F0108355F01080C
:10008000355F0108355F0108355F0108355F0108FC
:10009000A5440008355F0108355F0108355F010898
:1000A000355F0108355F0108355F0108355F0108DC
:1000B000355F0108B9440008355F01087D44000838
:1000C00091440008355F0108355F0108355F01087C
:1000D000355F0108355F0108355F0108355F0108AC
:1000E000355F0108355F0108355F01080000000039
:1000F0000000000000000000000000000000000000
:0C01000000000000000000005FF808F1A3
:10011000044B05481B1A062B02D9044B03B11847A0
:10012000704700BF9F0900209C09002000000000CC
:1001300005490648091A891001EBD171491002D00E
:10014000034B03B1184770479C0900209C0900200D
:100150000000000010B5064C237843B9FFF7D8FF24
:10016000044B13B10448AFF300800123237010BD8A
:100170009C090020000000006CAD010808B5084B88
:100180001BB108490848AFF300800848036813B959
:10019000BDE80840CCE7064B002BF9D09847F7E7BD
:1001A00000000000A00900206CAD01089C0900209F
:1001B0000000000080B483B000AF03463960FB71DB
:1001C00097F90730002B0BDA0D49FB7903F00F0389
:1001D000043B3A68D2B21201D2B20B441A7609E05B
:1001E000084997F907303A68D2B21201D2B20B44EB
:1001F00083F8002300BF0C37BD4680BC704700BFAA
:1002000000ED00E000E100E080B400AFBFF34F8FED
:100210000549054BDB6803F4E062044B1343CB60F4
:10022000BFF34F8FFEE700BF00ED00E00400FA05CA
:1002300080B582B000AF78607B68013BB3F1807F0E
:1002400001D301230FE00A4A7B68013B53600F2171
:100250004FF0FF30FFF7AEFF054B00229A60044BD2
:1002600007221A60002318460837BD4680BD00BF2C
:1002700010E000E080B500AF05F07EFC04F0C6F9A8
:1002800007F0E0FB0246144BA3FB02239B09184630
:10029000FFF7CEFF04F088FC04F008FF4FF47A70FB
:1002A00005F0D8FC00F008FA04F0EEF90B4804F071
:1002B0002BFA002300220A49094804F0ABFB04F0A2
:1002C0009BFA084804F0AEFA4FF47A7005F0F8F99A
:1002D00000F048FAFCE700BFD34D621020A10700F0
:1002E000401840180D06000880B586B000AFF860D1
:1002F000B9603B601346FB71BB68184A13603B6AE8
:10030000DBB20233DAB2154B1A73FB68DAB2134B65
:100310001A71124AFB79537100237B610CE07B69EF
:1003200002337A6939680A4411780C4A13440A4640
:100330001A717B6901337B617A693B6A9A42EEDB11
:10034000064B00225A73054B00229A73034B0FCBC6
:1003500004F076FA00BF1837BD4680BD500A002071
:1003600090B585B002AF1F4B1B68184615F0D6F943
:100370000346DBB21B16DBB23B711A4B1B681846F7
:1003800015F0CCF90346DBB21B14DBB27B71154BC5
:100390001B68184615F0C2F90346DBB21B12DBB22C
:1003A000BB71104B1B68184615F0B8F90346DBB259
:1003B000FB713A1D0423009313465422A021C1204F
:1003C000FFF792FF074B1B68184614F06DFC0346BD
:1003D0000C461A462346044804F060FC00BF0C3764
:1003E000BD4690BD300A002088AE010890B585B0AA
:1003F00002AF1F4B1B68184615F090F90346DBB29D
:100400001B16DBB23B711A4B1B68184615F086F9B8
:100410000346DBB21B14DBB27B71154B1B6818461D
:1004200015F07CF90346DBB21B12DBB2BB71104B3B
:100430001B68184615F072F90346DBB2FB713A1DD2
:100440000423009313465022A021C120FFF74CFF44
:10045000074B1B68184614F027FC03460C461A4647
:100460002346044804F01AFC00BF0C37BD4690BD7B
:10047000340A0020A0AE010890B585B002AF1F4B32
:100480001B68184615F04AF90346DBB21B16DBB2AF
:100490003B711A4B1B68184615F040F90346DBB256
:1004A0001B14DBB27B71154B1B68184615F036F92F
:1004B0000346DBB21B12DBB2BB71104B1B68184644
:1004C00015F02CF90346DBB2FB713A1D04230093AF
:1004D00013465722A021C120FFF706FF074B1B68D8
:1004E000184614F0E1FB03460C461A46234604481E
:1004F00004F0D4FB00BF0C37BD4690BD2C0A002091
:10050000B4AE010880B584B002AF00233B71002374
:100510007B710023BB710B4B1B68DBB2FB713A1D77
:100520000423009313464422A021C220FFF7DCFEDF
:10053000044B1B681946044804F0B0FB00BF0837A1
:10054000BD4680BDA40A0020CCAE010880B584B0B1
:1005500002AF00233B7100237B710023BB710B4B67
:100560001B68DBB2FB713A1D0423009313464C2237
:10057000A021C220FFF7B8FE044B1B6819460448AF
:1005800004F08CFB00BF0837BD4680BD100A002078
:10059000E0AE010890B58DB000AF786007F11403AC
:1005A000184604F0A7F978620223BB6211E007F154
:1005B0001802BB6A13441B781A46BB6AC3F10503D1
:1005C000DB0002FA03F3FA6A1343FB62BB6A0133EE
:1005D000BB62BA6A7B6A9A42E9DB3B7E3B727B690B
:1005E000DBB27B727B6AFB60FB6ADBB23B747B7EB7
:1005F0007B747B681C4607F1080393E8070084E8D6
:10060000070078683437BD4690BD00BF80B584B020
:1006100000AF3B1D1846FFF7BDFF3B7919461A484E
:1006200004F03CFB7B791946184804F037FB3B7B10
:100630001946174804F032FBBB681946154804F008
:100640002DFB7B7B1946144804F028FB3B79A02B3B
:1006500016D1124804F022FB7B7B4C2B04D0582B84
:1006600008D0442B03D00BE0FFF770FF08E0FFF742
:1006700049FF05E03B7B1946094804F00FFBFFE703
:1006800000BF1037BD4680BDF0AE0108FCAE0108CA
:1006900008AF010814AF01081CAF010828AF01081A
:1006A00030AF010880B582B000AF786004F0CCFFB5
:1006B00000BF0837BD4680BD80B582B000AF264B75
:1006C00001225A7003F038FB4FF4FA7005F0C2FAB9
:1006D000002003F099FB0A2005F0BCFA012003F08A
:1006E00093FB012005F0B6FA0A2005F0B3FA522078
:1006F00000F040F9522000F055F90346FB71FB79F8
:100700001946164804F0CAFA522000F05DF952204A
:1007100001F01CFA0346DAB20F4BDA70522000F0F7
:1007200085FE0346DBB2DB015BB2DB11D9B20A4ABC
:10073000137861F3820313700021522002F0FEFB54
:10074000074B4FF0FF321A60034B05225A7000BF6F
:100750000837BD4680BD00BF380A002038AF010809
:100760000000002080B500AF02F0AEFD03F066FB94
:1007700002464C4B1A604B4B1A684B4B1B689A4213
:1007800030D0484B1B68484A1360522000F0C8FA2A
:100790000246464B1A603F21522001F067FB434B53
:1007A0001B68002B03D0424802F056FE1AE03E4B75
:1007B0001B68002B11D101220821522001F0CEFA32
:1007C0000721522000F058FF3A4B00229A70394B13
:1007D000DB78184602F0DCFE04E0364B01225A704A
:1007E00002F0C6FE334B5B78072B4AD801A252F8C1
:1007F00023F000BF150800081F080008290800089A
:100800005D08000883080008390800083F08000850
:100810004508000803F0F6F8FFF774FE3FE002F029
:1008200029FEFFF793FE3AE0234B1B68234A13602F
:10083000204B04225A7032E003F0DEF82FE003F080
:1008400019F82CE003F0FAFA0346002B0CBF012341
:100850000023DBB21A46144B1A6020E0164B1A68CC
:10086000164B1B68D31AB3F5487F07D3114B0022F0
:100870005A70114B1B68114A136010E002F024FDFE
:100880000DE002F021FD0C4B1A680C4B1B68D31ACB
:1008900041F28732934202D9FFF7B6FCFFE700BF6F
:1008A00080BD00BF280A002000000020D00A0020E0
:1008B00058AF0108380A00200C0A0020400A002026
:1008C00080B483B000AF0346FB71FB79132B01D9D1
:1008D000002303E0FB79044A52F8233018460C3712
:1008E000BD4680BC704700BF0400002090B585B0B5
:1008F00000AF0446084611461A462346FB710346DC
:10090000BB800B46BB711346FB70BB881B0A9BB2B6
:10091000DBB23B72BB88DBB27B7207F10801FB796B
:100920000222184602F06CFDF860FB68002B1BD118
:1009300007F10803991CFB790122184602F076FDA5
:10094000F860FB68002B0FD1BA7ABB791340DAB29A
:10095000FB781343DBB2BB7207F10801FB7903227A
:10096000184602F04DFDF860FB6818461437BD4686
:1009700090BD00BF80B584B000AF0346FB7107F1A6
:100980000B031A461621522004F026FDF860FB7A6C
:10099000012B02D0FB68002BF1D0FB681846103702
:1009A000BD4680BD80B584B000AF0346FB7107F142
:1009B0000F031A460021522004F00EFDFB7B18465F
:1009C0001037BD4680BD00BF80B588B000AF03467C
:1009D000FB71494B55221A81474B64225A81464B81
:1009E00000221A74444B01221A76434B64225A8225
:1009F000414B01229A82404B0122DA823E4B012276
:100A00005A763D4B012283F89020FB79184602F07C
:100A1000F9FA4FF4FA7005F01DF907F113031A46BD
:100A20002421522004F0D8FCF861FB69002B03D08C
:100A3000324804F033F959E0FA7C2F4B83F89120C7
:100A400007F10C031A462621522004F039FDF86103
:100A5000FB69002B03D02A4804F020F946E0FB682C
:100A60001B0C1B04002B01D1264BFB60FB68224AA8
:100A7000136007F10A031A461E21522004F0E2FC1B
:100A8000F861FB69002B03D01F4804F007F92DE043
:100A90007B891A464FF47A7303FB02F3DB09BB61CF
:100AA000154ABB695360FB79184602F009FB78616F
:100AB0007B69002B03DA154804F0F0F816E007F123
:100AC00012031A461621522004F086FCF861FB69D5
:100AD000002B03D00E4804F0E1F807E0BB7C012BAB
:100AE00002D17B69002B01D00123FB61FB69184611
:100AF0002037BD4680BD00BF5000002014B2010861
:100B000044B20108F803CE0060B2010890B20108B7
:100B1000A4B2010880B485B000AF0346FB71054B59
:100B200093F89130FB73FB7B5BB218461437BD46DC
:100B300080BC70475000002080B584B000AF0346F1
:100B40000A46FB711346BB710B4ABB7982F89130A0
:100B500097F90630084A127E93FBF2F3BB71BB791A
:100B60001A462421522004F0B3FBF860FB681846B3
:100B70001037BD4680BD00BF5000002080B584B056
:100B800000AF03460A46FB711346BB80BB881A467A
:100B90001E21522004F0C2FBF860FB68002B0ED12E
:100BA000BB884FF47A7202FB03F3DB09BB60064A91
:100BB000BB685360FB79184602F082FAF860FB6864
:100BC00018461037BD4680BD5000002080B584B067
:100BD00000AF03460A46FB711346BB71BB795B0845
:100BE000DBB21A4640F21221522004F071FBF86089
:100BF000FB68002B02D0044804F050F8FB6818464C
:100C00001037BD4680BD00BFC8B2010880B485B0B2
:100C100000AF0346FB71074B1B7EFB60FB68013B8B
:100C2000054A32F813307B817B8918461437BD465C
:100C300080BC70475000002068B0010880B586B0C5
:100C400000AF0346FB7100237B61FB79184600F07F
:100C50008DFF38613B69002B03DA214804F01EF850
:100C600038E03B69002B02DD1E4804F017F807F15D
:100C70000F031A464FF49071522004F0ADFB7861D7
:100C80007B69002B15D1FB7B9AB2174BDA8207F1F7
:100C90000F031A463F21522004F09EFB78617B69C6
:100CA000002B08D1FA7BFB791146184600F018FAA0
:100CB00002E000BF00E000BF7B69002B02DA0848B9
:100CC00003F0ECFF7B69002B04D13B69002B01D0C2
:100CD0003B697B617B6918461837BD4680BD00BF04
:100CE000E0B20108F0B201085000002080B584B0E5
:100CF00000AF03463960FB713B68002B02D0012333
:100D0000FB7301E00023FB73FB7B1A461721522083
:100D100004F0DEFAB860BB6818461037BD4680BDE7
:100D200080B584B000AF0346FB71FB791846FFF72E
:100D300085FFF860FB68002B53DBFB790421184624
:100D400001F020F8F860FB68002B4CD1FB79C82239
:100D50000A21184600F09CFBF860FB68002B03D0CA
:100D6000284803F09BFF47E0FB796421184600F018
:100D700005FAF860FB68002B37D1FB79C8211846CB
:100D800000F0D8F9F860FB68002B30D1FB79002126
:100D9000184600F0A5F9F860FB68002B29D1FB7913
:100DA000FF220021184600F07BF9F860FB68002B59
:100DB00021D1FB790421184600F04EF9F860FB6858
:100DC000002B03D0104803F069FF15E0FB791846AB
:100DD00001F09AFAFB790721184600F04DFCF86003
:100DE0000AE000BF08E000BF06E000BF04E000BF6B
:100DF00002E000BF00E000BFFB6818461037BD46A8
:100E000080BD00BF04B3010828B3010880B58AB0D3
:100E100000AF03463960FB7100237B624FF46053DF
:100E20003B6207F10A031A465021522004F00AFBE4
:100E3000F861FB69002B26D1154B5B8ABB61144B13
:100E4000DB8A7B61BB690133BB617B891A463B6AE4
:100E500003FB02F37B627A6ABB69B2FBF3F37B624A
:100E60000B4B9B8A3B610B4A3B6932F81330FB60AA
:100E70007B69FA6802FB03F37A6AB2FBF3F37B62E5
:100E80003B687A6A1A60FB6918462837BD4680BD00
:100E90005000002070B0010880B584B000AF034658
:100EA0003960FB713A68FB7911461846FFF7AEFFCF
:100EB000F860FB68002B0DD107F10B031A464E2199
:100EC000522004F089FAF860FB7A1B09DBB21A465B
:100ED0003B685A60FB6818461037BD4680BD00BFAE
:100EE00080B586B000AF03463960FB71FB79012104
:100EF000184600F095F878617B69002B03D01A48FA
:100F000003F0CCFE2BE007F10F02FB7911461846E7
:100F100000F02EF878617B69002B03D1FB7B042B5A
:100F200002D0F0E700BF00E000BF7B69002B05D1D5
:100F3000FB7939681846FFF7AFFF7861FB7902212A
:100F4000184600F099FB38613B69002B07D0074831
:100F500003F0A4FE7B69002B01D13B697B617B69B7
:100F600018461837BD4680BD4CB301086CB3010864
:100F700080B584B000AF03463960FB7107F10B0305
:100F80001A464F21522004F027FAF860FB7ADB085A
:100F9000DBB203F00703DAB23B681A70FB6818464D
:100FA0001037BD4680BD00BF80B586B000AF034698
:100FB0003960FB713B68002B03DC6FF001037B6140
:100FC00029E000233B6115E007F10F031A464E218B
:100FD000522004F001FA78617B69002B0FD1FB7B72
:100FE00003F00103DBB2FB73FB7B002B09D13B69F0
:100FF00001333B613A693B689A42E5DB02E000BF9E
:1010000000E000BF7B69002B05D1FB7B002B02D1E8
:101010006FF004037B617B6918461837BD4680BDBD
:1010200080B584B000AF03460A46FB711346BB711E
:10103000BB79032B07D8BB791A463821522004F01C
:1010400047F9F86002E06FF00103FB60FB681846A7
:101050001037BD4680BD00BF80B584B000AF0346E9
:101060000A46FB711346BB71BB79042B09D8BB79C7
:10107000DB00DBB2F879C7221421FFF737FCF860F8
:1010800007E0BB791946054803F008FE6FF001033D
:10109000FB60FB6818461037BD4680BD90B3010861
:1010A00080B584B000AF0346FB710B46BB7113469D
:1010B0007B71BB791A463C21522004F009F9F86093
:1010C000FB68002B06D17B791A463A21522004F0A6
:1010D000FFF8F860FB6818461037BD4680BD00BFBA
:1010E00080B584B000AF03460A46FB711346BB715E
:1010F000BB7923F04003BB71BB79072B01D90723D0
:10110000BB71BB7943F04003FB73FB7B1A463F2165
:10111000522004F0DDF8B860BB68002B03D1BB7926
:101120009AB2034B9A82BB6818461037BD4680BD01
:101130005000002080B584B000AF03460A46FB7122
:101140001346BB80BB8840F6F512934202D940F6A5
:10115000F613BB80BB88084AA2FB0323DB089BB2C3
:10116000DBB21A463E21522004F0B2F8F860FB6868
:1011700018461037BD4680BDCDCCCCCC80B584B0F0
:1011800000AF03460A46FB711346BB80BB88002BA9
:1011900003D0BB88013BFB8101E0BB88FB81FB895D
:1011A000B3F5E87F03D94FF4E873FB8105E0FB89D1
:1011B000FF2B02D1FB890133FB81FB891A464021B9
:1011C000522004F0ABF8B860BB68002B02D1044A8F
:1011D000FB895382BB6818461037BD4680BD00BFEF
:1011E0005000002080B586B000AF03463960FB7127
:1011F000FB790121184600F0F9FE78617B69002B2C
:1012000030D107F10C02FB791146184600F008FABC
:1012100078617B69002B0CD13B7B03F00703DBB2C9
:10122000042B07D03B7B23F03F03DBB2002B01D123
:10123000E7E700BF7B69002B05D1FB7939681846C9
:1012400000F016F87861FB790121184600F014FAD5
:1012500038613B69002B06D07B69002B03D13B69C9
:101260007B6100E000BF7B6918461837BD4680BD32
:1012700080B584B000AF03463960FB710023FB608A
:10128000FB68002B03D0374803F008FD64E03A68A0
:10129000FB791146184600F0D9F8F860FB68002B7E
:1012A00055D107F10A031A466621522004F0CAF804
:1012B000F860FB68002B46D17B891A463B685A6070
:1012C00007F109031A464D21522004F085F8F86011
:1012D000FB68002B06D17B7A1B09DBB21A463B6800
:1012E0009A6002E0204803F0D9FCFB79396818467F
:1012F00001F09CFDF860FB68002B2CD11B4B5B7E42
:10130000002B15D0FB793968184601F03DFDF860D7
:10131000FB68002B0CD13B685B6A002B08D03B6854
:101320005A6A3B689A603B681B8C1A463B681A6095
:101330000E4B93F89030002B0ED0FB79396818468D
:1013400001F080FF08E00A4803F0A8FC04E0094827
:1013500003F0A4FC00E000BFFB6818461037BD4650
:1013600080BD00BFB0B30108CCB30108500000201D
:10137000ECB3010810B4010880B584B000AF034697
:101380003960FB7107F10802FB791146184600F03D
:1013900047F9F860FB68002B25D13B7A03F007037F
:1013A000DBB2042B05D03B7A23F03F03DBB2002BEA
:1013B00015D0FB7939681846FFF75AFFF860FB68CB
:1013C000002B14D1FB790121184600F055F9F86083
:1013D000FB68002B0BD0094803F060FC07E03B687A
:1013E00012229A6004E0064803F058FC00E000BFB7
:1013F000FB6818461037BD4680BD00BF30B40108F9
:1014000054B4010880B485B000AF03463960FB7165
:101410003B68DAB2044B5A760023FB60FB6818463F
:101420001437BD4680BC70475000002080B485B0A2
:1014300000AF0346FB71044B5B7EFB60FB68184604
:101440001437BD4680BC70475000002080B586B080
:1014500000AF03463960FB7107F10F031A466221A2
:10146000522003F0B9FF78617B69002B09D1074B4B
:101470001B7E3B61FB7B1A463B6903FB02F23B6828
:101480001A607B6918461837BD4680BD50000020A1
:1014900080B584B000AF0346FB710B46BB711346A9
:1014A0007B717B791A461921522003F011FFF860F5
:1014B000FB68002B06D1BB791A461A21522003F093
:1014C00007FFF860FB6818461037BD4680BD00BFB7
:1014D00080B588B000AF7B600346FB730B46BB81D1
:1014E00013467B81254B1B7EBB61B989BA691346C4
:1014F0001B029B1A994206DC7989BA6913461B02C2
:101500009B1A994203DD6FF00103FB6130E07B68B9
:10151000002B08D0FB7B01211846FFF7E7FBF861A1
:10152000FB69002B23D1BA89BB6992FBF3F3D9B2D3
:101530007A89BB6992FBF3F3DAB2FB7B1846FFF7BB
:10154000A7FFF861FB69002B02D00D4803F0A6FB52
:101550007B68002B0CD0FB7B00211846FFF7C6FBF5
:101560007861FB69002B03D17B69FB6100E000BF60
:10157000FB6918462037BD4680BD00BF50000020E3
:1015800074B4010880B588B000AF0346B9607A60D2
:10159000FB730023FB611F4B1B7EBB617B68002B31
:1015A00017D007F116031A461921522003F014FF31
:1015B000F861FB69002B03D0174803F06FFB23E0B1
:1015C000BB7D9BB2BA6992B202FB03F39AB27B680D
:1015D0001A80BB68002B17D007F117031A461A218F
:1015E000522003F0F9FEF861FB69002B03D00B4891
:1015F00003F054FB08E0FB7D9BB2BA6992B202FB98
:1016000003F39AB2BB681A80FB6918462037BD46BF
:1016100080BD00BF500000209CB40108BCB401088C
:1016200080B584B000AF03463960FB7107F10B034E
:101630001A464F21522003F0CFFEF860FB7A23F0C8
:101640003803DAB23B681A70FB6818461037BD469B
:1016500080BD00BF80B584B000AF03463960FB7128
:101660003A684F21522003F0B7FEF860FB68184635
:101670001037BD4680BD00BF80B584B000AF0346C3
:101680000A46FB711346BB71BB79072B07D8BB79A0
:101690001A461521522003F01BFEF86002E06FF09D
:1016A0000103FB60FB6818461037BD4680BD00BFD4
:1016B00080B584B000AF0346FB71012240F20721E0
:1016C000522003F005FE01224FF40271522003F074
:1016D000FFFD00229621522003F0FAFDFD22972102
:1016E000522003F0F5FD0022E321522003F0F0FD2B
:1016F0000422E421522003F0EBFD0222E5215220D6
:1017000003F0E6FD0122E621522003F0E1FD032271
:10171000E721522003F0DCFD0222F521522003F0E4
:10172000D7FD0522D921522003F0D2FDCE22DB21A4
:10173000522003F0CDFD0322DC21522003F0C8FD2E
:10174000F822DD21522003F0C3FD00229F21522008
:1017500003F0BEFD3C22A321522003F0B9FD00227C
:10176000B721522003F0B4FD3C22BB21522003F0EC
:10177000AFFD0922B221522003F0AAFD0922CA219D
:10178000522003F0A5FD01224FF4CC71522003F04A
:101790009FFD17224FF4D871522003F099FD0022CB
:1017A00040F2AD11522003F093FD0522FF2152209B
:1017B00003F08EFD05224FF48071522003F088FD66
:1017C000052240F29911522003F082FD1B224FF4B2
:1017D000D371522003F07CFD3E224FF4D67152208B
:1017E00003F076FD1F2240F2A711522003F070FD96
:1017F00000223021522003F06BFD102211215220D3
:1018000003F066FD30224FF48571522003F060FD35
:1018100046223F21522003F05BFDFF22312152205E
:1018200003F056FD63224021522003F051FD0122B6
:101830002E21522003F04CFD09221B21522003F0DF
:1018400047FD31223E21522003F042FD2422142183
:10185000522003F03DFDFB793221184600F006FBD3
:10186000F860FB6818461037BD4680BD80B584B06F
:1018700000AF0346FB710023FB60074B1B68FB6056
:10188000FA68DA21522003F075FDB860BB6818468B
:101890001037BD4680BD00BF5000002080B582B02B
:1018A00000AF0346FB71012240F20721522003F0F2
:1018B0000FFD01224FF40271522003F009FD0022B6
:1018C0009621522003F004FD54229721522003F068
:1018D000FFFC0022E321522003F0FAFC0422E42161
:1018E000522003F0F5FC0222E521522003F0F0FC27
:1018F0000122E621522003F0EBFC0322E7215220D3
:1019000003F0E6FC0222F521522003F0E1FC05225F
:10191000D921522003F0DCFCFB791846FFF7A6FF23
:1019200000229F21522003F0D3FC2822A321522021
:1019300003F0CEFC0022B721522003F0C9FC28227C
:10194000BB21522003F0C4FC0922B221522003F033
:10195000BFFC0922CA21522003F0BAFC01224FF435
:10196000CC71522003F0B4FC17224FF4D8715220EE
:1019700003F0AEFC002240F2AD11522003F0A8FCAF
:101980000522FF21522003F0A3FC05224FF48071B1
:10199000522003F09DFC052240F29911522003F0E1
:1019A00097FC1B224FF4D371522003F091FC3E228E
:1019B0004FF4D671522003F08BFC1F2240F2A71186
:1019C000522003F085FC00223021522003F080FCDD
:1019D00010221121522003F07BFC30224FF485713C
:1019E000522003F075FC46223F21522003F070FC88
:1019F000FF223121522003F06BFC63224021522050
:101A000003F066FC01222E21522003F061FCFF222C
:101A10002C21522003F05CFC09221B21522003F0F0
:101A200057FC31223E21522003F052FC2422142183
:101A3000522003F04DFCFB793221184600F016FAD3
:101A4000002318460837BD4680BD00BF80B586B06C
:101A500000AF03460A46FB711346BB71BB79002BEE
:101A600065D0BB79032B62D8BB79013B354A32F88C
:101A700013303B823B8A1A469621522003F04EFCDB
:101A80007861314ABB7913762F4B93F891305AB273
:101A9000BB7992FBF3F3FB73FB7B1A4624215220A4
:101AA00003F016FC78617B69002B0AD1BB79142204
:101AB00092FBF3F3DBB21A462121522003F008FC1B
:101AC00078617B69002B19D11F4B1B7C002B15D033
:101AD0001D4B9B897B827B8A1B4A127E93FBF2F310
:101AE0007B827B8AFF2B01D9FF237B827B8ADBB23F
:101AF0001A462521522003F0EBFB78617B69002B0D
:101B00000CD1BB79012B0CBF01230023DBB21A4699
:101B1000FB791146184600F08FF978617B69002B3C
:101B200009D1BB79012B06D003237B6103E06FF061
:101B300001037B6100E000BF7B6918461837BD4692
:101B400080BD00BF60B001085000002080B485B0A7
:101B500000AF0346FB71044B1B7EFB60FB6818461D
:101B60001437BD4680BC70475000002080B584B05B
:101B700000AF0346FB71FB791846FFF78FFEF86054
:101B8000FB68002BFB68002B0CD1094B1A7EFB79FC
:101B900011461846FFF75AFFF8600022162152201E
:101BA00003F096FBFB6818461037BD4680BD00BFAA
:101BB0005000002080B586B000AF0346B9607A605F
:101BC000FB73BB68002B02D0BB68012B17D1BB682D
:101BD000002B02D110237B8201E011237B827B68E2
:101BE000002B02D020237B7401E000237B747B7CDC
:101BF000798AF87BDF22FEF779FE786102E06FF0E8
:101C000001037B617B6918461837BD4680BD00BF64
:101C100080B584B000AF03463960FB711346BB71D9
:101C20003B68002B02D03B68012B1ED1BB79082BEF
:101C300002D0BB79002B18D13B68002B02D11023B6
:101C40007B8101E011237B81BB795B00DBB2798969
:101C5000F879E122FEF74AFEF860FB68002B0ED00F
:101C600039680A4803F01AF809E0BB791A4639685E
:101C7000074803F013F86FF00103FB6000E000BFBA
:101C8000FB6818461037BD4680BD00BFD8B40108B8
:101C9000F8B4010880B586B000AFB9607B60034638
:101CA000FB731346BB73BB68002B02D0BB68012BD0
:101CB0002ED1BB7B082B02D0BB7B002B28D100236D
:101CC0007B74BB68002B02D110237B8201E01123BF
:101CD0007B827B68002B03D07B7C43F020037B74EA
:101CE000BB7B5B00DAB27B7C1343DBB27B747A7C18
:101CF0007B8A1946522003F0EBFA78617B69002B4E
:101D000010D0BB68103B1946094802F0C7FF09E034
:101D1000BB7B1A46B968074802F0C0FF6FF00103A9
:101D20007B6100E000BF7B6918461837BD4680BD67
:101D300018B5010834B5010880B584B000AF03467A
:101D40003960FB71FB79002239681846FFF760FFA4
:101D5000F860FB6818461037BD4680BD80B584B07A
:101D600000AF03463A60FB710B46BB71BA79F87954
:101D70003B680121FFF78EFFF860FB6818461037BB
:101D8000BD4680BD80B584B000AF03460A46FB71F6
:101D90001346BB71BB79042B07D8BB79F879F822BD
:101DA0001421FEF7A3FDF86007E0BB79194605484A
:101DB00002F074FF6FF00103FB60FB6818461037F8
:101DC000BD4680BD54B5010880B584B000AF034660
:101DD000FB710B46BB8013467B80BA887B889A4296
:101DE0001DD87B88002B1AD0124ABB881381114A58
:101DF0007B88538107F10B031A461C21522003F004
:101E0000EBFAF860FB68002B0DD1FA7AFB791146EA
:101E1000184600F02BF8F860FB68002B04E06FF028
:101E20000103FB6000E000BFFB6818461037BD46A9
:101E300080BD00BF5000002080B584B000AF0346D5
:101E40003960FB713B68002B02D00123FB7301E07A
:101E50000023FB73FB7BF879FE222D21FEF746FD64
:101E6000B860BB6818461037BD4680BD80B584B0E9
:101E700000AF03460A46FB711346BB710023FB60AB
:101E8000BB791A461C21522003F022FAF860FB6845
:101E9000002B0DD1FB79184600F0ECF8F860FB68D8
:101EA000002B07D1FB79184601F00AF9F86002E02F
:101EB00000BF00E000BFFB6818461037BD4680BD7C
:101EC00080B584B000AF03463960FB713B6840F6D3
:101ED000F612934203D96FF00103FB6022E03B68E6
:101EE000092B01D80A233B603B68114AA2FB03235C
:101EF000DB08FB72FB7A1A461B21522003F0E8F93B
:101F0000F860FB68002B03D00A4802F0C7FE09E026
:101F1000FA7A3B680649A1FB0313DB089A4201D019
:101F20000223FB60FB6818461037BD4680BD00BF2A
:101F3000CDCCCCCC74B5010880B584B000AF0346DD
:101F40003960FB7107F10B031A464D21522003F053
:101F500043FAF860FB68002B04D1FB7A03F001021E
:101F60003B681A60FB6818461037BD4680BD00BF4D
:101F700080B586B000AF03463960FB7100237B61FA
:101F80003B68002B03DC6FF001037B6129E0002339
:101F90003B6115E007F10F031A464D21522003F073
:101FA0001BFA78617B69002B0FD1FB7B03F00103E7
:101FB000DBB2FB73FB7B002B09D13B6901333B6137
:101FC0003A693B689A42E5DB02E000BF00E000BFEF
:101FD0007B69002B05D1FB7B002B02D16FF0040342
:101FE0007B617B6918461837BD4680BD80B584B0DB
:101FF00000AF03460A46FB711346BB71BB79032B46
:102000000DD8BB791A461821522003F061F9F86007
:10201000FB68002B06D0064802F040FE02E06FF09D
:102020000103FB60FB6818461037BD4680BD00BF4A
:10203000A0B5010880B584B000AF0346FB71FB7901
:1020400003211846FFF7D2FFF860FB6818461037E7
:10205000BD4680BD80B584B000AF0346FB71FB79FF
:1020600001211846FFF7C2FFF860FB6818461037D9
:10207000BD4680BD80B58EB000AF0346FB714FF406
:102080007A733B634FF4FA73FB622B4B1B89BB6281
:10209000294B5B897B6207F10F031A461C215220F2
:1020A00003F09AF978637B6B002B03D0234802F08E
:1020B000F5FD3CE0FB7B3B62FB79184600F0D8F86D
:1020C000F861FB69002B03DA4FF0FF337B632EE0EE
:1020D0003B6A3A6B02FB03F2FB69D31ABB6107F15F
:1020E00010031A46B821522003F0EAF978637B6B9B
:1020F000002B03D0124802F0D1FD18E03B691B020F
:102100003B61BB6AFA6A02FB03F33A6902FB03F222
:10211000BB69796A01FB03F3B2FBF3F37B617B6973
:102120009BB21A462221522003F0F8F878637B6BA9
:1021300018463837BD4680BD50000020B8B50108AC
:10214000E0B5010880B588B000AF0346FB71244BB1
:102150001B7C3B613B69002B2AD0214B9B89BB61D7
:102160001F4B1B7E1A46BB6993FBF2F3BB61BB6935
:10217000FF2B01DDFF23BB61BB69DBB21A462521C2
:10218000522003F0A5F8F861FB69002B1FD1144B16
:10219000DB89FB60FB689BB21A462621522003F0C4
:1021A000BDF8F861FB69002B13D102237B6101E0CC
:1021B00000237B617B69DBB2F879FD222D21FEF7DC
:1021C00095FBF861FB79184600F07AFF02E000BF4A
:1021D00000E000BFFB6918462037BD4680BD00BF48
:1021E0005000002080B584B000AF03463960FB7119
:1021F0003B68002B01D001233B600A4B1B7CBB607A
:102200003A68BB689A4208D03B68DAB2054B1A7448
:10221000FB791846FFF796FFF860FB681846103701
:10222000BD4680BD5000002080B584B000AF03469D
:10223000FB710B46BB8013467B800C4B1B7CBB6049
:102240000A4ABB889381094A7B88D381BB68002BEB
:1022500005D0FB791846FFF775FFF86001E0002311
:10226000FB60FB6818461037BD4680BD500000205B
:1022700080B58CB000AF0346FB711823FB62462388
:10228000BB62C8237B62072387F8233007F10B0367
:102290001A4640F20911522003F09EF8F861FB69DA
:1022A000002B02D04FF0FF3329E0FA7A97F8233061
:1022B0001340DBB2BB6107F10B031A464FF4857183
:1022C000522003F089F8F861FB69002B02D04FF02F
:1022D000FF3314E0FB7A7B61FA6ABB6AD1187A6932
:1022E00013469B0013445B000B443B61BB69013305
:1022F0003A6902FB03F27B6A1344FB60FB681846F1
:102300003037BD4680BD00BF80B485B000AF034606
:10231000FB711D4B0022DA611B4B00225A661A4BDF
:1023200000229A66184B0022DA66174B00221A67C1
:10233000154B00225A67144B0022A3F86020124B61
:1023400000229A670023FB6011E00F4AFB681033FC
:102350005B0013444FF6FF729A800B4AFB680C3304
:102360009B00134400229A60FB680133FB60FB680A
:10237000092BEADD044B00221A62002318461437A9
:10238000BD4680BC704700BF5000002080B487B0BD
:1023900000AFF860B9607A603B60FB68002B08D042
:1023A000BB68642202FB03F2FB68B2FBF3F37B829F
:1023B00002E042F20F737B827A8A3B689A4202D330
:1023C0007B687B6116E07A8A7B6A9A4202D83B6A14
:1023D0007B610FE07A8A7B6AD31A396A7A688A1A33
:1023E00002FB03F239687B6ACB1AB2FBF3F33A6A59
:1023F000D31A7B617B6918461C37BD4680BC704789
:1024000080B5A8B002AF7B600346FB730B46BB816F
:1024100013467B810023A7F896300023A7F892305B
:102420000123A7F890300023A7F88E300023A7F8E7
:102430008C300023A7F88A300023A7F888300023C7
:10244000A7F886300023A7F884300023A7F882304D
:102450000023A7F880300023FB670023A7F87A3019
:102460000023A7F8783000237B6700233B67002315
:10247000FB660023BB6600237B6600233B660023CC
:10248000FB654FF4E163FB644FF49673BB64A34BAD
:102490001B7E1A4613461B029B1A7B64B7F8A430B6
:1024A0000C3B032B25D801A252F823F0BD240008D1
:1024B000CB240008BD240008CB2400081023A7F873
:1024C0008C300023A7F88A3022E01023A7F88C3044
:1024D000924B1B7E9BB21A46920013441A469100FF
:1024E0001A460B461344DB00BB810123A7F88A3050
:1024F0000EE07A897B6C9A4206D30023A7F88A30D3
:102500000123A7F8923002E00123A7F88A3000BF28
:10251000BB89A7F89630814B5B683B647F4BD3F84F
:102520008430FB637E4B1A683B6C1344BB637D4B6A
:102530001B68FA6B02FB03F3DB087B4AA2FB032355
:102540009A083B6C13447B63784B1B68FA6B02FB65
:1025500003F3DB08744AA2FB03239A083B6C134481
:102560003B63734B1B68FA6B02FB03F3DB086E4A99
:10257000A2FB03239A083B6C1344FB626D4B1B8840
:102580007A899A4209D27A68BB6B9A4205D21023A3
:10259000A7F88E300123A7F89230674B1B887A8901
:1025A0009A4209D27A687B6B9A4205D21023A7F827
:1025B0008E300123A7F892305F4B1B887A899A42AC
:1025C00009D25E4B1A687B6B1A447B689A4202D927
:1025D0000123A7F888305A4B1B68D7F8A0209A42ED
:1025E00005D90123A7F880300123A7F89230554B75
:1025F0001B687A689A4205D20123A7F8803001232C
:10260000A7F89230454B9B6B002B1ED0434B9A6B27
:102610007B689A420CD2414B9B6B7A68D31A642236
:1026200002FB03F23D4B9B6BB2FBF3F3FB670EE047
:102630003A4B9A6B7B68D31A642202FB03F2374B46
:102640009B6BB2FBF3F3FB6701E00023FB673E4BA0
:102650001B68FA6F9A4202D90123A7F88030B7F8B5
:102660008030012B24D12D4B0022DA610023A7F802
:10267000943015E0B7F89430284A10335B001344C7
:102680004FF6FF729A80B7F89430244A0C339B00BF
:10269000134400229A60B7F894300133A7F89430BD
:1026A000B7F89430092BE5D91C4B00221A622DE0B3
:1026B0000923A7F8943025E0B7F89420B7F89430B0
:1026C000013B164910335B000B449888134902F113
:1026D00010035B000B4402469A80B7F89410B7F8D9
:1026E0009430013B0D4A0C339B0013449A680B480D
:1026F00001F10C039B0003449A60B7F89430013B4E
:10270000A7F89430B7F89430002BD5D1B7F88A30B9
:10271000012B1BD1014ABB8993841BE05000002090
:10272000F4B50108F8B501081BA4411AFCB501086D
:1027300000B6010804B6010806B6010808B601088B
:102740000CB6010810B6010814B60108934B4FF6F9
:10275000FF729A84914A7B689363904B1B6A0133A2
:102760008E4A13628E4B1B887A899A4203D27A680A
:102770003B6B9A420CD38A4B1B887A899A4203D3CB
:102780007A68FB6A9A4203D30123A7F8923015E0D6
:10279000B7F88C30002B11D0B7F8A4300C2B03D035
:1027A000B7F8A4300E2B03D1B7F88C30A7F88E30D1
:1027B0000123A7F892300023A7F8903007F1170300
:1027C0001A464FF4D671522002F006FEB862BB6A78
:1027D000002B40F0C682FB7DFB8407F11C031A46E8
:1027E0004FF48671522002F06BFEB862BB6A002B78
:1027F00040F0B98207F118031A464FF4887152204D
:1028000002F05EFEB862BB6A002B40F0AE82B7F801
:102810008030012B07D0B7F89230012B21D1B7F8C7
:102820009030012B1DD1FB8C3E2B0AD03E224FF461
:10283000D671522002F04CFDB862BB6A002B40F00A
:102840009682FB69554A5366BB69544A9366FB6995
:10285000524AD366BB69514A1367504B0022DA6172
:1028600030E0FB8C3E2B06D1FB694C4A5366BB69BA
:102870004A4A936605E0FB69484AD366BB69474A02
:102880001367464BDB69474A1288B3FBF2F102FB40
:1028900001F29B1A002B02D13C23FB7501E03E2381
:1028A000FB75FB7D1A464FF4D671522002F010FDE5
:1028B000B862BB6A002B40F05C82384BDB690133A5
:1028C000364AD361B7F89230012B0DD1B7F88E306C
:1028D000324AD367B7F88E30102B02D17B6CA7F841
:1028E0009630B7F8963047E22C4B9A6E2B4B1B6F05
:1028F0009A4206D9294B9A6E284B1B6FD31ABB6597
:1029000001E00023BB65254ABB6D5367B7F88830EB
:10291000002B03D1244B1B68FB6406E0224B1A6892
:10292000224B1B68B2FBF3F3FB641C4B5A6E1B4B30
:10293000DB6E9A4206D9194B5A6E184BDB6ED31ACE
:102940007B6505E0154BDA6E144B5B6ED31A7B6525
:102950007A6DFB6C9A4204D97A6DFB6CD31A3B6595
:1029600001E000233B657A6DFB6C13443B62BA6D5A
:102970003B6D9A4203D3BA6D3B6A9A4206D9012352
:10298000A7F886301023A7F88E3045E1034BDB69AA
:10299000012B0DD80523A7F87A300CE05000002059
:1029A00018B601081AB601081CB6010820B60108BD
:1029B0000323A7F87A30AF4B1968AF4B1868AF4BB9
:1029C0001B68AF4A12680192009303460A46796871
:1029D000D7F8A000FFF7DAFCB8640023A7F8783036
:1029E00000237B6700233B670023FB660023BB6655
:1029F00000237B6600233B660023A7F8943029E080
:102A0000B7F894309F4A10335B0013449B884FF60D
:102A1000FF72934219D0B7F878300133A7F87830B5
:102A2000B7F89430974A10335B0013449B881A46DA
:102A30007B6F13447B67B7F89430924A0C339B004A
:102A400013449B68BA6E1344BB66B7F894300133E5
:102A5000A7F89430B7F89430092B03D8B7F878303A
:102A6000052BCDD9B7F87830002B0BD0B7F87830DC
:102A70007A6FB2FBF3F33B67B7F87830BA6EB2FB0C
:102A8000F3F37B660023A7F8783000237B670023ED
:102A9000BB660023A7F8943048E0B7F89430794A31
:102AA00010335B0013449B884FF6FF72934238D07B
:102AB000B7F878300133A7F87830B7F89430714A16
:102AC00010335B0013449B881A463B6FD31A194698
:102AD000B7F894306B4A10335B0013449B881A4656
:102AE0003B6FD31A03FB01F31A467B6F13447B67DA
:102AF000B7F89430634A0C339B0013449A687B6E9A
:102B0000D31A1946B7F894305E4A0C339B0013442D
:102B10009A687B6ED31A03FB01F31A46BB6E13440B
:102B2000BB66B7F894300133A7F89430B7F8943007
:102B3000092B03D8B7F87830052BAED9B7F8782031
:102B4000B7F87A309A420ED3B7F878307A6FB2FB82
:102B5000F3F39BB2FB66B7F87830BA6EB2FBF3F3CF
:102B60009BB23B6603E00023FB6600233B66464BBB
:102B70001B683A6E9A4249D2B7F87820B7F87A3093
:102B80009A4203D21023A7F88E3045E03F4B1B68D2
:102B90003A6E9A420ED23E4B1A68BB6CD31A3A6E0A
:102BA00002FB03F2394B1B68B2FBF3F2BB6C13441C
:102BB000FB6502E0364B1B68FB65324BDB6F002B7D
:102BC00005D1344B1A68FB6D02FB03F3FB65324BF6
:102BD0001B68FA6E02FB03F2BB6C9A4207D2B7F88D
:102BE0007830052B03D90123A7F8823014E0FA6E60
:102BF000FB6D9A4203D20123A7F884300CE0012335
:102C0000A7F886301023A7F88E3005E00123A7F837
:102C100086301023A7F88E30B7F88A30002B0DD1FC
:102C2000184BB3F86030002B67D0164BB3F8603008
:102C3000013B9AB2134BA3F860205EE0B7F88630F0
:102C4000012B2FD10F4BB3F86020144B1B8813447A
:102C50009AB20C4BA3F860200A4BB3F86020104BDB
:102C60001B889A4249D90E4B1A88064BA3F860205C
:102C700043E000BF24B6010828B601082CB60108BD
:102C800030B601085000002034B6010838B60108FB
:102C90003CB6010840B6010844B6010848B6010830
:102CA0004AB60108B7F88430012B1ED1344BB3F873
:102CB0006030002B21D01023A7F88E30304BB3F8B2
:102CC0006020304B1B889A420AD92D4BB3F8602004
:102CD0002C4B1B88D31A9AB2294BA3F860200CE026
:102CE000274B0022A3F8602007E0B7F88230012BC1
:102CF00003D1234B0022A3F86020214BDB6F002B74
:102D000021D1B7F88E30002B1DD00123A7F89430C5
:102D100015E0B7F894301A4A10335B0013444FF6AD
:102D2000FF729A80B7F89430154A0C339B00134415
:102D300000229A60B7F894300133A7F89430B7F8BE
:102D40009430092BE5D9B7F88E300D4AD367B7F820
:102D50008E30102B02D17B6CA7F89630B7F89630E6
:102D60000AE000BF06E000BF04E000BF02E000BFD1
:102D700000E000BF4FF0FF3318469837BD4680BDD6
:102D8000500000204CB60108B0B58AB002AF03462F
:102D90003960FB710023BB61234B1B7EFB7507F180
:102DA0000F031A466421522002F016FBF861FB69FA
:102DB000002B33D1FB7BBB613B681B6899B2FB7D69
:102DC0009BB2BA6992B202FB03F39CB23B681D69E5
:102DD0003B68DB683A68926892B2F8790192009396
:102DE0002B462246FFF70CFB38613B69002B03DAC8
:102DF0004FF0FF33FB6112E03B699AB23B681A84E3
:102E0000FB7D9BB2BA6992B202FB03F39AB23B68B4
:102E10005A84054BDA6F3B685A6200E000BFFB69D9
:102E200018462037BD46B0BD5000002080B58CB09C
:102E300000AF03463960FB7100237B6100237B6296
:102E400000233B6200233B610023FB600023BB6047
:102E50006FF00043FB610623BB610023FB6207F1B7
:102E600010031A466C21522002F02AFBB862BB6A9A
:102E7000002B56D13A69FB699A4201D900233B6184
:102E800007F10C031A467421522002F019FBB862B4
:102E9000BB6A002B47D107F114031A467C2152204C
:102EA00002F00EFBB862BB6A002B3ED107F10803AB
:102EB0001A468021522002F003FBB862BB6A002B45
:102EC00035D17A693B685A61BA683B689A61BB68D8
:102ED000FB627A69BB689A4201D97B69FB62FB6A33
:102EE000002B02D14FF21863FB623B694FF47A72F8
:102EF00002FB03F2FB6AB2FBF3F37B62FB68BA6985
:102F000002FB03F34FF47A7202FB03F2FB6AB2FB9B
:102F1000F3F33B623B687A6A1A613B683A6ADA60AB
:102F200006E000BF04E000BF02E000BF00E000BF19
:102F3000BB6A18463037BD4680BD00BF80B584B03F
:102F400000AF03463960FB713B68DAB2094B83F886
:102F500090203B68002B05D0FB79184600F0B0F8B4
:102F6000F86001E00023FB60FB6818461037BD469F
:102F700080BD00BF5000002080B485B000AF034684
:102F8000FB71054B93F89030FB60FB6818461437D3
:102F9000BD4680BC704700BF5000002080B485B0A3
:102FA00000AF78600023FB604FF08043BB6002E01D
:102FB000BB689B08BB60BA687B689A42F8D817E088
:102FC000FA68BB681A447B689A420BD8FA68BB68F7
:102FD00013447A68D31A7B60FB685A08BB681344B1
:102FE000FB6002E0FB685B08FB60BB689B08BB60A2
:102FF000BB68002BE4D1FB6818461437BD4680BC83
:10300000704700BF80B483B000AF0346FB71044B30
:103010005022C3F8802000BF0C37BD4680BC7047EB
:103020005000002080B588B000AF03463960FB71C6
:10303000214BD3F880307B611F4BD3F888303B6144
:103040001D4BD3F88430FB603B68002B2CDD1B4A02
:103050003B6892FBF3F3A3F5F273FB61FB69002B72
:1030600002DC0023BB6122E0FB69B3F5005F0BDAF1
:10307000FB69FA6802FB03F319463A697B6913445A
:10308000B1FBF3F3FB6109E0FA6939697B690B4431
:10309000B2FBF3F3FA6802FB03F3FB61FB6918462A
:1030A000FFF77CFFB86102E06FF00043BB61BB69D2
:1030B00018462037BD4680BD5000002000688909B1
:1030C00080B58CB000AF0346FB710023BB6207F1F3
:1030D00013031A462A21522002F07EF9F862FB6A95
:1030E000002B40F09680FB7C002B03D10123BB62B8
:1030F0002823FB74FB7C1A464FF47A7303FB02F31C
:10310000DB09FB6107F10A031A462D21522002F068
:1031100063F9F862FB6A002B7DD107F10B031A46B5
:103120001C21522002F058F9F862FB6A002B74D17E
:1031300007F10C031A46B821522002F0C1F9F862D7
:10314000FB6A002B6BD107F109031A462C21522090
:1031500002F042F9F862FB6A002B62D17B7A1A46D0
:103160004FF47A5393FBF2F3344AC2F88830334B6E
:103170005B68BB61FA69BB699A4204D3FB692F4A59
:10318000C2F8843003E02D4B0022C3F88420BB7AC0
:1031900003F00203002B13D007F110031A46262177
:1031A000522002F04FF9F862FB6A002B3BD13B8AB8
:1031B0001A464FF47A7303FB02F3DB097B6201E0EA
:1031C00000237B62FB681B02FA7A11461C4A1268D4
:1031D0000A44B3FBF2F33B627A6ABB69D21A3B6AD8
:1031E0009A4203DB7A6ABB69D31A3B627B7A1A463E
:1031F0003B6A03FB02F31B097B617A69FB79114689
:103200001846FFF70FFF03469AB20C4BA3F88C2029
:103210000AE000BF08E000BF06E000BF04E000BF16
:1032200002E000BF00E000BFFB6A002B01D1BB6AD7
:10323000FB62FB6A18463037BD4680BD5000002057
:1032400050B6010880B586B000AF03463960FB7107
:103250003B68DB683B613A69184B1B689A4225DA88
:103260003A69FB7911461846FFF7DCFE03467B619D
:10327000134B1B7EFB60FB68013B124A32F8133094
:103280007B810F4BB3F88C301A467B699A4203DA84
:103290000B4BB3F88C307B617A897B699A4201DAF7
:1032A0007B897B617A693B68DA6102E03B680022D6
:1032B000DA61002318461837BD4680BD54B60108B0
:1032C0005000002068B0010880B500AF0D4B1B68AE
:1032D000002B0CD00B4B1B68092219460A4813F02F
:1032E00047F9094B00225A72064B00221A6001214D
:1032F000054800F0D7FD054B1B680133034A1360F6
:1033000000BF80BDDC0A0020B8090020C4090020ED
:1033100080B582B000AF7860FFF7D6FFFCE700BF52
:1033200080B483B000AF7860034A7B68136000BF4D
:103330000C37BD4680BC7047DC0A002080B582B0E7
:1033400000AF0346FB80FB88012B01D100F04AF857
:1033500000BF0837BD4680BD80B400AF044B1B687A
:103360000133034A136000BFBD4680BC704700BFF5
:103370000C0A002080B582B000AF7860786800F059
:1033800005F800BF0837BD4680BD00BF80B487B0D8
:1033900000AF7860094B1B687B61084B1B683B6181
:1033A0003A697B69D31AFB60FA687B689A42F4DB5E
:1033B00000BF1C37BD4680BC704700BF0C0A002010
:1033C00080B582B000AF4FF40051054805F0A8FC6D
:1033D0000346FB71FB7918460837BD4680BD00BF28
:1033E0000010014080B400AF044B1B680133034A56
:1033F000136000BFBD4680BC704700BFC8090020F5
:1034000080B584B000AF03463960FB711346BB71D1
:10341000FB799BB2BA793968184601F06FFEF86003
:10342000FB6818461037BD4680BD00BF80B584B02C
:1034300000AF03463960FB711346BB71FB799BB249
:10344000BA793968184601F073FEF860FB681846CF
:103450001037BD4680BD00BF80B483B000AF786038
:10346000034B04225A7000BF0C37BD4680BC704726
:10347000380A002080B582B000AF34495220FDF7F1
:103480002FFD78607B68002B5BD1304B1B6842F2CC
:103490000F72934203D92E4801F000FC4EE02B4BF3
:1034A0001B68B3F57A7F3CD3284B1B68294A82FB03
:1034B00003129211DB17D01A244B1A68254BA3FB79
:1034C00002139B094FF47A7101FB03F3D31A224ACA
:1034D00082FB03129210DB17D31A1A4601461F48CB
:1034E00001F0DCFB194B1B681A4A82FB0312921194
:1034F000DB17D01A154B1A68164BA3FB02139B0956
:103500004FF47A7101FB03F3D31A134A82FB0312BF
:103510009210DB17D31A02461149124812F0D4FF59
:103520000CE00A4B1B6819460F4801F0B7FB074B2C
:103530001B681A460D490B4812F0C6FF0948FFF7F1
:10354000EFFE00BF0837BD4680BD00BF100A002057
:1035500058B70108D34D62106766666660B7010808
:103560006CB70108440A002078B7010884B7010845
:1035700080B582B000AF64237B607B689BB2194644
:103580005220FDF7FBFD00BF0837BD4680BD00BFE0
:1035900080B582B000AF7860214B1B7803F0020346
:1035A000DBB2002B14D01E4B1B7803F00403DBB2FC
:1035B000002B06D01B48FFF7B3FE1A4801F06EFB44
:1035C00023E01948FFF7ACFE174801F067FB1CE049
:1035D000134B1B7803F00403DBB2002B09D079688E
:1035E000124801F05BFB7A681149124812F06CFF37
:1035F00008E07968104801F051FB7A680F490D48DE
:1036000012F062FF0B48FFF78BFE054B03225A7046
:103610000B4B1B680B4A136000BF0837BD4680BDCB
:10362000380A00208CB7010894B701089CB701083C
:10363000A4B70108440A0020ACB70108B4B70108D8
:103640000C0A0020400A002080B500AF114B1B6817
:10365000114A13600CE0FFF737FE0E4B1A680E4B51
:103660001B68D31AB3F57A7F02D90C4801F016FB18
:10367000FFF7A6FE0346002BEDD0064B1A68064B5B
:103680001B68D31AB3F57A7F8CBF01230023DBB20A
:10369000184680BD0C0A0020400A0020BCB7010873
:1036A00080B483B000AF7860084B1B68084A136091
:1036B000064B1A68064B1B68D31AB3F5487FF7D33D
:1036C00000BF0C37BD4680BC704700BF0C0A00200D
:1036D000400A002080B500AF0D48FFF7E1FF01214F
:1036E0005220FDF703FB00230022C8215220FDF7E2
:1036F000EFFE01215220FEF745FB00215220FDF78D
:10370000F5FA01215220FDF7B7FF00BF80BD00BFD1
:10371000C4B7010880B500AF0D48FFF7C1FF012114
:103720005220FDF7E3FA0023C82200215220FDF7C2
:10373000CFFE02215220FEF725FB00215220FDF78B
:10374000D5FA01215220FDF797FF00BF80BD00BFD1
:10375000CCB7010880B500AF0D48FFF7A1FF0121EC
:103760005220FDF7C3FA0023C82264215220FDF73E
:10377000AFFE03215220FEF705FB00215220FDF78A
:10378000B5FA01215220FDF777FF00BF80BD00BFD1
:10379000D4B7010880B500AF114B1A79114BA3FBC8
:1037A000021359080B465B000B44D31ADAB20C4BD8
:1037B0001A710B4B1B79012B06D0022B07D0002B63
:1037C00007D1FFF787FF04E0FFF7A4FF01E0FFF751
:1037D000C1FF01215220FDF74FFF00BF80BD00BF98
:1037E000380A0020ABAAAAAA80B500AF0321522054
:1037F000FEF7FCFB642002F02DFA07215220FDF7B2
:103800003BFF00BF80BD00BF80B582B000AF164B4C
:1038100006225A70154B1B68154A13603223FB8031
:103820005220FDF77DFA3F215220FEF71FFB0321B6
:103830005220FEF70BF9FB8819465220FEF740FB99
:10384000012208215220FEF789FAFFF7A3FF072182
:103850005220FDF711FF03215220FEF7C7FB00BFE6
:103860000837BD4680BD00BF380A00200C0A002082
:10387000400A002080B584B000AF524B1B68002B7B
:103880003FD03B1D19465220FDF7CAFEF860FB6889
:10389000002B04D04C48FFF7DFFD00BF8EE03B79E2
:1038A000C3F30203DBB2013B032B1BD801A252F886
:1038B00023F000BFC5380008CD380008D53800080F
:1038C000DD380008414801F0E9F90BE0404801F01B
:1038D000E5F907E03F4801F0E1F903E03E4801F077
:1038E000DDF900BF01215220FDF7C6FE354B002255
:1038F0001A603A4B1B683A4A13603A4B01225A71DC
:1039000015E00023BB60354B1A68354B1B68D31A92
:1039100041F2883293420AD9BB68002B03D00121BF
:103920005220FDF7A9FE2D4B1B682D4A13602D4B2D
:103930005B79002B0AD0294B1A68294B1B68D31AD4
:10394000FA2B17D9274B00225A7113E0254B1B790C
:10395000012B07D0022B09D0002B0BD1224801F0FC
:103960009DF907E0214801F099F903E0204801F0B2
:1039700095F900BFFFF7A8FCFFF722FD0346002BD7
:103980001CD1FFF761FEF860FB68002B05D0FFF744
:103990002BFF144B07225A7010E0124B1B795A1C54
:1039A000144B83FB0231D317C91A0B465B000B443F
:1039B000D11ACAB20B4B1A71FFF7ECFE00BF1037D9
:1039C000BD4680BDC8090020DCB70108E4B7010886
:1039D000ECB70108F4B70108FCB701080C0A002095
:1039E000400A0020380A002004B8010814B8010871
:1039F00024B801085655555580B500AFFFF704FFB0
:103A000000BF80BD80B584B000AF5220FEF79EF8A5
:103A10000346FB73A9495220FDF7E4FBB860BB687D
:103A2000002B03D0A648FFF717FD79E15220FDF7E0
:103A3000EDF80346FB80A14B1968FA8813469B00FA
:103A400013441B019F4A82FB03025211DB17D31A56
:103A5000994210DBFB7B022B0DD89B4B1B7803F0AC
:103A60000203DBB2002B06D0FB7B0133DBB219462D
:103A70005220FDF7EBFF914B1968FA8813465B0162
:103A80001344904A82FB03025211DB17D31A994266
:103A900010DAFB7B012B0DD98B4B1B7803F0020353
:103AA000DBB2002B06D0FB7B013BDBB21946522078
:103AB000FDF7CCFF814B9B68002B5AD0824B1B78C3
:103AC00003F00103DBB2002B2FD0804B1B681A469A
:103AD0007F4B1B68D31A002B0EDB7C4B1B681A46EE
:103AE0007B4B1B68D31A002B06DA744BDB69194633
:103AF000784801F0D3F881E0744B1B681A46744B88
:103B00001B68D31A002B06DA6C4B9B681946724867
:103B100001F0C4F872E06C4A13786FF3000313707D
:103B20006A4B1B686A4A136068E05220FDF77EFC0E
:103B300038603B68002B07D0604B9B68102B03D18B
:103B40006648FFF7EDFB02E06548FFF7E9FB5F4BD6
:103B50001A685F4B1B68D31AB3F5487F4ED95A4A8F
:103B6000137843F001031370584B1B68584A1360D5
:103B700044E0554A13786FF300031370534B1B68EE
:103B8000534A1360574B1B881A46574B1B6803FB5D
:103B900002F24A4B1B6854490968C1F5803101FBA8
:103BA00003F313441B149AB24E4B1A804D4B1B88DF
:103BB00019464E4801F072F84A4B1B881A464C4988
:103BC0004C4812F081FC404B1B7803F00203DBB23F
:103BD000002B10D0FB7B012B03D1464B5F221A70C8
:103BE00009E0FB7B022B03D1424B3D221A7002E01D
:103BF000404B7E221A703F48FFF792FBFFF7E0FB35
:103C00000346002B40F08C80304B1B68304A136019
:103C1000FFF71AFDB860BB68002B02D0FFF7ECFE7F
:103C20007EE0294B9B78DBB2DBB20133DBB2DAB248
:103C3000254B9A70244B9B785AB22F4B1340002B84
:103C400003DA013B63F003030133DBB25BB2032B06
:103C500007D11D4A137843F0020313700323FB734B
:103C60001CE0194A13786FF341031370164BD87890
:103C7000154B9B785AB2214B83FB0231D317C91ADB
:103C80000B465B000B44D31ADBB2DBB20344FB737D
:103C9000FB7B032B02D9FB7B033BFB73FB7B1946AE
:103CA0005220FDF7D3FEB860BB68002B2ADA144817
:103CB000FFF7D2FB044B02225A7031E0A40A002025
:103CC00038B801081F85EB51380A00200C0A002083
:103CD000400A002040B8010844B801084CB8010867
:103CE00054B80108CC0A0020F40000205CB8010898
:103CF00068B80108440A0020030000805655555555
:103D00006CB80108084B1B7843F38003DBB25BB24D
:103D100019465220FDF776FBFB7B1846FFF738FC6F
:103D20001037BD4680BD00BF380A002080B400AF08
:103D300000BFBD4680BC704780B584B000AF7860DE
:103D400007F10C0202230021842001F00BFA4FF24C
:103D5000FF737B8107F10A0202231421842001F002
:103D600033FA00F011F900BF1037BD4680BD00BF27
:103D700080B582B000AF0346FB80FFF733FB002322
:103D800018460837BD4680BD80B584B000AF786066
:103D900039607B68032B0ED07B68022B08D07B68D0
:103DA000012B02D14FF4804307E04FF4805304E02D
:103DB0004FF4005301E04FF40043FB603B68002BDD
:103DC0000AD0FB689AB20F4B1B889BB213439BB27D
:103DD0009AB20C4B1A800BE0FB689BB2DB439AB2A1
:103DE000084B1B889BB213409BB29AB2054B1A80BA
:103DF0000223044A1221842001F0E6F900BF1037A3
:103E0000BD4680BDE00A002080B582B000AF78607A
:103E100079680020FFF7B8FF00BF0837BD4680BDB6
:103E200080B582B000AF7860396079683868FFF794
:103E3000ABFF002318460837BD4680BD80B582B071
:103E400000AF00F00DF80346002B14BF0123002340
:103E5000DBB2FB71FB7918460837BD4680BD00BF59
:103E600080B582B000AFBA1C02231021842001F07B
:103E700079F978607B68002B05D17B8803F40063B7
:103E80009BB27B8006E0064B1B680133044A13603B
:103E900000237B807B8818460837BD4680BD00BF65
:103EA000CC09002080B584B000AF78603960002371
:103EB000FB607B68BB6016E0BB681B781A46124B40
:103EC0009B5CF968184600F021F8BB6801331B7849
:103ED0002E2B02D1BB680133BB60FB680133FB6052
:103EE000BB680133BB60FB68032B03DCBB681B783A
:103EF000002BE1D13868FFF73DFA00F045F800BF2C
:103F00001037BD4680BD00BF74B8010880B582B0CF
:103F100000AF786039601B4B1B8843F07F039AB277
:103F2000184B1A80174B1B8843F4F0639AB2154B59
:103F30001A8080223B6802FA03F39BB2DB439AB2F9
:103F4000104B1B889BB213409BB29AB20D4B1A8048
:103F50007B689BB203F07F039BB2DB439BB29AB2B8
:103F6000084B1B889BB213409BB29AB2054B1A8038
:103F70000223044A1221842001F026F900BF0837E9
:103F8000BD4680BDE00A002080B500AF074B1B880E
:103F900043F4F0639AB2054B1A800223034A1221BC
:103FA000842001F011F900BF80BD00BFE00A0020AD
:103FB00080B500AF00F016F800F050F800F0ACF853
:103FC00000F002F900F03AF900F0CEF900F0F0F953
:103FD00000F052F900BF80BD80B400AF00BFBD4605
:103FE00080BC704780B586B000AF1A4A194B9B69F8
:103FF00043F004039361174B9B6903F004037B6058
:104000007B68144A134BDB6943F40033D361114BD3
:10401000DB6903F400333B603B680423BB6002238D
:10402000FB6001233B6103237B6107F10803194611
:10403000094804F055FC0823BB600023FB6007F12E
:1040400008031946044804F04BFC00BF1837BD466E
:1040500080BD00BF001002400008014080B588B05C
:1040600000AF2A4A294BDB6943F00073D361274B29
:10407000DB6903F00073FB60FB68244A234B9B69F8
:1040800043F004039361214B9B6903F00403BB607D
:10409000BB681F4A1E4B5B6823F4C04353601B4A36
:1040A0001A4B9B6943F001039361184B9B6903F022
:1040B00001037B607B684FF480533B6102237B618B
:1040C0000323FB610123BB6107F11003194611486B
:1040D00004F006FC4FF400633B6100237B61032383
:1040E000FB610023BB6107F110031946094804F086
:1040F000F7FB00220521142005F070F8142005F0CC
:1041000089F800BF2037BD4680BD00BF00100240C7
:10411000000001400008014080B586B000AF274A8A
:10412000264B9B6943F480539361244B9B6903F4B2
:1041300080537B607B68224A214B5B6823F001033C
:1041400053601E4A1D4B9B6943F0040393611B4B54
:104150009B6903F004033B603B680223FB6002237E
:104160003B6102237B612023BB6007F108031946F2
:10417000144804F0B5FB4023BB6007F1080319465F
:10418000104804F0ADFB8023BB6007F1080319461B
:104190000C4804F0A5FB1023BB600123FB60012346
:1041A0003B6103237B6107F108031946054804F0CE
:1041B00097FB00BF1837BD4680BD00BF001002400E
:1041C000000001400008014080B586B000AF184AE9
:1041D000174B9B6943F400639361154B9B6903F490
:1041E00000637B607B68124A114B9B6943F00403B8
:1041F00093610F4B9B6903F004033B603B680D4ADE
:104200000C4B5B6823F0C00353604FF48073BB60BA
:104210000023FB6001233B6102237B6107F108035C
:104220001946054804F05CFB00BF1837BD4680BD49
:1042300000100240000001400008014080B582B03B
:1042400000AF0C4A0B4BDB6943F00203D361094B0F
:10425000DB6903F002037B607B68002203211D20E1
:1042600004F0BCFF1D2004F0D5FF00BF0837BD4699
:1042700080BD00BF0010024080B58AB000AF374A51
:10428000364B9B6943F004039361344B9B6903F005
:1042900004037B617B69314A304B9B6943F008031F
:1042A00093612E4B9B6903F008033B613B692B4AEA
:1042B0002A4B9B6943F010039361284B9B6903F0E1
:1042C0001003FB60FB68254A244B9B6943F0010304
:1042D0009361224B9B6903F00103BB60BB68204ADA
:1042E0001F4B5B6843F0020353601C4A1B4BDB69A6
:1042F00043F40013D361194BDB6903F400137B60B3
:104300007B684FF48073BB611223FB6101233B6226
:1043100003237B6207F118031946124804F0E0FA00
:104320004FF40073BB6107F1180319460D4804F000
:10433000D7FA01220421202004F050FF202004F0AD
:1043400069FF022204211F2004F048FF1F2004F00F
:1043500061FF00BF2837BD4680BD00BF001002408E
:1043600000000140000C014080B586B000AF0E4A4D
:104370000D4B9B6943F0100393610B4B9B6903F05A
:1043800010037B607B684FF40053BB600023FB602D
:1043900000233B6107F108031946044804F0A0FA22
:1043A00000BF1837BD4680BD00100240001001401C
:1043B00080B586B000AF124A114B9B6943F00803E9
:1043C00093610F4B9B6903F008037B607B680123BB
:1043D000BB600C4BFB6000233B6107F108031946EF
:1043E000094804F07DFA01220721062004F0F6FEB8
:1043F000062004F00FFF00BF1837BD4680BD00BF88
:104400000010024000001110000C014080B400AF09
:1044100000BFBD4680BC704780B400AFFEE700BF60
:1044200080B400AFFEE700BF80B400AFFEE700BF7E
:1044300080B400AFFEE700BF80B400AF00BFBD4650
:1044400080BC704780B400AF00BFBD4680BC7047E1
:1044500080B400AF00BFBD4680BC704780B500AFE0
:1044600001F0E0FB04F07AFF00BF80BD80B500AF33
:10447000012004F0BFFC00BF80BD00BF80B500AFCD
:10448000024808F037FE00BF80BD00BF980B002037
:1044900080B500AF024808F09FFF00BF80BD00BF9D
:1044A000980B002080B500AF024810F021F800BF43
:1044B00080BD00BFE40A002080B500AF02480CF0C8
:1044C000A5F800BF80BD00BF100C002080B400AF75
:1044D000154A154B1B6843F0010313601249124B38
:1044E0005A68124B13404B600F4A0F4B1B6823F066
:1044F000847323F4803313600B4A0B4B1B6823F443
:1045000080231360084A084B5B6823F4FE03536062
:10451000054B4FF41F029A60054B4FF000629A6002
:1045200000BFBD4680BC7047001002400000FFF88D
:1045300000ED00E080B485B000AF0023FB600023F5
:10454000BB6000237B602C4B5B6803F00C03FB60BB
:10455000FB68042B07D0082B09D0002B33D1274B45
:10456000274A1A6033E0254B254A1A602FE0224B78
:104570005B6803F47013BB601F4B5B6803F480330C
:104580007B60BB689B0C0233BB607B68002B06D151
:10459000BB681C4A02FB03F3184A136017E0164B72
:1045A0005B6803F40033002B06D0BB68154A02FB9E
:1045B00003F3124A13600AE0BB68114A02FB03F3DB
:1045C0000E4A136003E00D4B0D4A1A6000BF0A4B00
:1045D0005B6803F0F0031B090B4AD35CDBB2FB60A2
:1045E000064B1A68FB6822FA03F3044A136000BF03
:1045F0001437BD4680BC704700100240F800002010
:1046000000127A0000093D00FC00002080B590B047
:1046100000AF0223BB610123BB621023FB620223B4
:104620007B630023BB634FF4E013FB6307F11803C4
:10463000184601F003FC01237B600223BB600023CA
:10464000FB6000233B6100237B613B1D0121184679
:1046500003F042FB03F0F6F902460A4BA3FB0223E8
:104660009B09184604F0F8FD042004F05BFE0022CC
:1046700000214FF0FF3004F0B1FD00BF4037BD46D0
:1046800080BD00BFD34D621080B500AF194B1A4AF0
:104690001A60184B194A1A63164B194A5A63154B7C
:1046A00000229A61134B0022DA61124B00221A6237
:1046B000104B00225A620F4B00229A620D4B0022CF
:1046C000DA620C4B00229A600A4B12225A60094BA4
:1046D0000022DA60074B4FF420221A61054B4FF499
:1046E00040125A6103480FF037F8064800F09AF874
:1046F00000BF80BDE40A002000640040240B0020BD
:10470000580B00200D06000880B582B000AF78601D
:10471000142004F08DFD7B68324A93422AD0314A3E
:10472000934203DC304A934233D041E02F4A934214
:1047300011D02F4A93423BD12E4B03225A602D4B6E
:104740000022DA602B4B4FF4E0221A61294B4FF420
:1047500000125A613AE0274B06225A60254B00228C
:10476000DA60244B4FF4E0221A61224B4FF400121E
:104770005A612BE01F4B09225A601E4B0022DA605F
:104780001C4B4FF420221A611A4B4FF440125A610D
:104790001CE0184B12225A60164B0022DA60154BAF
:1047A0004FF420221A61134B4FF440125A610DE06E
:1047B000104B12225A600F4B0022DA600D4B4FF45F
:1047C00020221A610B4B4FF440125A6109480EF037
:1047D000C3FF142004F01EFD012318460837BD4610
:1047E00080BD00BF90D0030048E8010020A1070071
:1047F00040420F00E40A002080B500AF00210248CB
:104800000FF064FD00BF80BDE40A002080B400AF5B
:10481000034B00221A6000BFBD4680BC704700BF3A
:10482000600A002080B483B000AF7860034A7B68E0
:10483000136000BF0C37BD4680BC7047600A002083
:1048400090B587B000AF3C4684E80F0000237B6141
:104850007B7B002B08D1264B1B6B3A681A60244BDC
:104860001B6B00225A6007E0214B1B6B00221A6071
:104870001F4B1B6B3A685A601D4B1B6BBA7B002A9F
:1048800001D1002200E00222DA60194B1B6B7A7B17
:10489000002A01D1002200E004229A60144B1B6B15
:1048A0003A7B1A6100237B610EE0114B1A6B391DB4
:1048B0007B690B441B7819467B6904339B001344C6
:1048C00059607B6901337B613B7B1A467B699A4265
:1048D000EBDC002106480FF025F90346002B01D040
:1048E000002300E0012318461C37BD4690BD00BFE1
:1048F000E40A002080B485B000AF78600023FB603C
:10490000254B5B6B9B68002B03D1234B5B6B1B68B8
:1049100002E0214B5B6B5B687A6813601E4B5B6B3C
:10492000DB68002B14BF01230023DBB21A467B682F
:104930009A73194B5B6B9B68002B14BF01230023F8
:10494000DBB21A467B685A73134B5B6B1B69DAB296
:104950007B681A730023FB6010E00F4B5A6BFB68F7
:1049600004339B0013445B68D9B27A68FB68134434
:1049700004330A461A70FB680133FB607B681B7BBB
:104980001A46FB689A42E8DC7B681B7B18461437A2
:10499000BD4680BC704700BFE40A002080B582B0ED
:1049A00000AF0346FB71FB79052B29D801A252F811
:1049B00023F000BFCD490008D1490008D9490008BB
:1049C000E3490008ED490008F749000801231BE00E
:1049D0000F4B00229A6013E00D4B4FF000429A609B
:1049E0000EE00B4B4FF080429A6009E0084B4FF00D
:1049F00080429A6004E0064B4FF040429A6000BF4C
:104A000003480EF0A9FE034618460837BD4680BD90
:104A1000E40A002080B58EB000AFF860B9603B605A
:104A20001346FB713B687B620123BB620023FB6280
:104A3000FB681B0C3B61FB689BB27B61BB681B0C7A
:104A4000BB61BB689BB2FB6100233B6201233B63FC
:104A50000E237B6307F11003194604480EF05EFF36
:104A6000012318463837BD4680BD00BFE40A002048
:104A700080B58AB000AF00237B610023BB610123B6
:104A8000FB6100233B6000237B600023BB600023AD
:104A9000FB6000233B6101233B620E237B623B46AC
:104AA000194604480EF03AFF012318462837BD4640
:104AB00080BD00BFE40A002080B400AF034B002299
:104AC00083F8392000BFBD4680BC7047E40A00204F
:104AD00080B500AF03480FF043FE0346DBB2184633
:104AE00080BD00BFE40A002080B500AF03480FF08E
:104AF00037FE0346DBB2184680BD00BFE40A002043
:104B000080B582B000AF7860264B1B68002B02D0C6
:104B1000244B1B6898477B6893F83930DBB2122B23
:104B200004D17B68322283F839202EE07B68222270
:104B300083F839207B680022DA637B681B687A6817
:104B40001268526942F480725A617B681B687A6805
:104B50001268526942F400725A617B681B687A6875
:104B60001268526942F480625A617B681B687A68F5
:104B70001268526942F400625A617B681B687A6865
:104B80001268526942F400425A617B681B687A6875
:104B90001268526942F002025A6100BF0837BD46EE
:104BA00080BD00BF600A002080B500AF114B124AE3
:104BB0001A60104B4FF4E1325A600E4B00229A609B
:104BC0000C4B0022DA600B4B00221A61094B0022C9
:104BD0009A61084B0C225A61064B0022DA610548A3
:104BE00004F0C8FB01220549024804F015FF00BF8C
:104BF00080BD00BF640A002000440040940B0020E8
:104C000080B582B000AF786039603B689AB24FF6E9
:104C1000FF737968034804F041FD00BF0837BD46C3
:104C200080BD00BF640A002080B582B000AF78600C
:104C3000391D4FF6FF730122034804F02FFD0023B6
:104C400018460837BD4680BD640A002080B582B092
:104C500000AF786001220449044804F0DDFE00BF83
:104C60000837BD4680BD00BF940B0020640A0020B9
:104C700080B582B000AF786007E07B681B7818468B
:104C8000FFF7D2FF7B6801337B607B681B78002BCA
:104C9000F3D100BF0837BD4680BD00BF0FB4B0B52B
:104CA0009AB002AF07F174033B63F2E13B6F1B78EC
:104CB000252B40F0E68100237B6501233B653B6F9C
:104CC00001333B673B6F1B78302B04D13B6F0133C3
:104CD0003B6700233B653B6F1B7887F85F3097F895
:104CE0005F30302B2AD997F85F30392B26D8002334
:104CF000FB6410E0FB6C5A1CFA6407F16002134479
:104D000097F85F2003F8602C3B6F01333B673B6FE4
:104D10001B7887F85F3097F85F302F2B03D997F80F
:104D20005F30392BE6D93A46FB6C134400221A70E7
:104D30003B460A21184600F077FD786597F85F300A
:104D4000253B532B00F2978101A252F823F000BFBC
:104D5000A14E0008775000087750000877500008EF
:104D60007750000877500008775000087750000807
:104D700077500008775000087750000877500008F7
:104D800077500008775000087750000877500008E7
:104D900077500008775000087750000877500008D7
:104DA00077500008775000087750000877500008C7
:104DB00077500008775000087750000877500008B7
:104DC00077500008775000087750000877500008A7
:104DD0007750000877500008775000087750000897
:104DE0007750000877500008775000087750000887
:104DF0007750000877500008775000087750000877
:104E00007750000877500008775000087750000866
:104E10007750000877500008775000087750000856
:104E20007750000877500008775000087750000846
:104E30007750000877500008775000087750000836
:104E40007750000877500008A94E0008D34E00089C
:104E500077500008B94F00087750000877500008D5
:104E60007750000877500008775000087750000806
:104E70007750000877500008354F00085D4F000854
:104E80007750000877500008C14E0008775000089E
:104E90000D4F00087750000877500008914F000828
:104EA0002520FFF7C1FEF1E03B6B1A1D3A631B683A
:104EB00087F85F3097F85F301846FFF7B5FEE5E0FA
:104EC0003B6B1A1D3A631B68BB64B86CFFF7D0FEDE
:104ED000DCE03B6B1A1D3A631B68BB65BB6D002BA6
:104EE00005DA2D20FFF7A0FEBB6D5B42BB653B6D75
:104EF00007F10C0000937B6D0A22B96D00F012FCE3
:104F000007F10C031846FFF7B3FEBFE03B6B1A1D19
:104F10003A631B68BB653B6D07F10C0000937B6D2A
:104F20000A22B96D00F0FEFB07F10C031846FFF7EB
:104F30009FFEABE03B6B1A1D3A631B68BB653B6D84
:104F400007F10C0000937B6D0822B96D00F0EAFBBD
:104F500007F10C031846FFF78BFE97E03020FFF7B0
:104F600063FE7820FFF760FE3B6B1A1D3A631B68F7
:104F7000BB653B6D07F10C0000937B6D1022B96D92
:104F800000F0D0FB07F10C031846FFF771FE7DE03F
:104F90003B6B1A1D3A631B68BB653B6D07F10C0048
:104FA00000937B6D1022B96D00F0BCFB07F10C0380
:104FB0001846FFF75DFE69E03B6B1A1D3A631B68FC
:104FC000BB65BB6DDB0F7B64BB6DC3F313033B643D
:104FD000386C10F0D9F90346FB634FF09341F86B3E
:104FE00010F0DAFA0346FB634FF07E51F86B10F0D5
:104FF00017F90346FB63BB6DDB0D03F0F003BB63E6
:10500000BB6D1B0D03F00F02BB6B1343BB63BB6B8C
:105010007F3BBB63F86B0FF047FE04460D46B86B51
:105020000FF030FE02460B464FF000004FF080417B
:1050300014F0DAFD02460B46204629460FF088FEA2
:1050400003460C461846214610F094F803467B634D
:105050007B6C012B02D12D20FFF7E6FD07F10C033D
:105060000522796B184600F09BFC07F10C031846EB
:10507000FFF7FEFD0AE03B6F1B781846FFF7D4FDF3
:1050800004E03B6F1B781846FFF7CEFD3B6F013302
:105090003B673B6F1B78002B7FF408AE00BF603787
:1050A000BD46BDE8B04004B0704700BF80B500AF5A
:1050B000104B114A1A600F4B4EF660225A600D4B8E
:1050C00000229A600B4B0222DA600A4B4FF48042B6
:1050D0001A61084B00225A61064BFF229A61054B68
:1050E0000022DA61034B00221A62024806F0C2F97C
:1050F00000BF80BD980B00200054004080B588B0F0
:1051000002AF0346B9607A60FB817B689AB2F98985
:10511000642300931346BA68044806F069FA03460C
:105120007B617B6918461837BD4680BD980B00200F
:1051300080B588B002AF0346B9607A60FB817B68B6
:105140009AB2F989642300931346BA68044806F0BA
:1051500005FB03467B617B6918461837BD4680BD59
:10516000980B002080B588B002AFBA607B60034620
:10517000FB810B467B737B7BFB7407F11302F98980
:105180006423009301230F4806F032FA03467B6143
:105190007B69002B0FD17B6898B27B68642202FB8D
:1051A00003F3F98900930346BA68064806F0D6FA75
:1051B00003467B6100E000BF7B6918461837BD4697
:1051C00080BD00BF980B002080B58CB002AFBA60E4
:1051D0007B600346FB810B467B737B7B3B7507F152
:1051E000140301337A68B968184610F0B7FA7B687F
:1051F0009BB2013398B207F11402F989642300933A
:105200000346054806F0F4F903467B627B6A1846BC
:105210002837BD4680BD00BF980B002080B584B004
:1052200000AF0346FB800B467B7113463B717B79D5
:105230003B733B797B7300BF07F10C02F9880223B3
:10524000084806F0AFFD0346002BF5D100BF054826
:1052500008F0FAF90346012BF9D100BF1037BD461B
:1052600080BD00BF980B002080B584B000AFBA604D
:105270007B600346FB810B467B7300BF07F10D0289
:10528000F9890123114806F08DFD0346002BF5D165
:1052900000BF0E4808F0D8F90346012BF9D100BF32
:1052A0007B689BB2F989BA68084806F0EDFD0346B1
:1052B000002BF5D100BF054808F0C6F90346012BC5
:1052C000F9D100BF1037BD4680BD00BF980B00204C
:1052D00080B586B002AF0346FB800B46BB80134609
:1052E000FB70BB881B0A9BB2DBB23B72BB88DBB294
:1052F0007B72FB78BB7207F10802F9886423009384
:105300000323054806F074F90346FB60FB68184662
:105310001037BD4680BD00BF980B002080B586B019
:1053200002AF0346FB800B46BB8013467B80BB88E5
:105330001B0A9BB2DBB23B72BB88DBB27B727B8801
:105340001B0A9BB2DBB2BB727B88DBB2FB7207F13C
:105350000802F988642300930423054806F048F9FD
:105360000346FB60FB6818461037BD4680BD00BF92
:10537000980B002080B586B002AF03463A60FB80F0
:105380000B46BB80BB881B0A9BB2DBB23B72BB885F
:10539000DBB27B723B681B0EDBB2BB723B681B0C43
:1053A000DBB2FB723B681B0ADBB23B733B68DBB2D0
:1053B0007B7307F10802F9886423009306230548EC
:1053C00006F016F90346FB60FB6818461037BD4629
:1053D00080BD00BF980B002080B586B002AF0346A9
:1053E0003A60FB800B46BB80BB881B0A9BB2DBB2DA
:1053F0003B72BB88DBB27B7207F10802F988642339
:10540000009302230E4806F0F3F80346FB60FB68A6
:10541000002B10D107F10802F988642300930123BF
:10542000074806F09BF90346FB60FB68002B02D19E
:105430003A7A3B681A70FB6818461037BD4680BD43
:10544000980B002080B586B002AF03463A60FB801F
:105450000B46BB80BB881B0A9BB2DBB23B72BB888E
:10546000DBB27B7207F10802F98864230093022300
:10547000124806F0BDF80346FB60FB68002B17D10D
:1054800007F10802F9886423009302230B4806F011
:1054900065F90346FB60FB68002B09D13B7A1B02D0
:1054A0009AB27B7A9BB213439BB29AB23B681A8042
:1054B000FB6818461037BD4680BD00BF980B002022
:1054C00080B586B002AF03463A60FB800B46BB80D6
:1054D000BB881B0A9BB2DBB23B72BB88DBB27B7220
:1054E00007F10802F988642300930223134806F0A9
:1054F0007FF80346FB60FB68002B19D107F1080217
:10550000F9886423009304230C4806F027F9034626
:10551000FB60FB68002B0BD13B7A1A067B7A1B04DD
:105520001A43BB7A1B021343FA7A1A433B681A6088
:10553000FB6818461037BD4680BD00BF980B0020A1
:1055400080B588B002AFBA607B600346FB810B4632
:10555000BB81BB891B0A9BB2DBB23B74BB89DBB24C
:105560007B7407F11002F9896423009302230E482B
:1055700006F03EF803467B617B69002B0ED17B6809
:1055800098B27B68642202FB03F3F9890093034617
:10559000BA68054806F0E2F803467B617B69184665
:1055A0001837BD4680BD00BF980B002000000000EA
:1055B00080B588B000AF1D4B1D4A1A601B4B0022FE
:1055C0005A601A4B00229A60184BC822DA60174BB7
:1055D00000221A61154809F071F850233B6100233D
:1055E0007B610023BB610F23FB6107F110031946A8
:1055F0000E480BF013FF00233B6001237B60002368
:10560000BB600023FB603B460022194607480BF0B5
:1056100065F9074B00225A62054A054B1B6843F0A7
:105620000103136000BF2037BD4680BDD40B0020AE
:10563000002C014080B400AF024B5B6A1846BD46A7
:1056400080BC7047002C014080B400AF034B0022A7
:105650005A6200231846BD4680BC7047002C0140AA
:1056600090B585B000AF7860FFF7E4FFF8607B6825
:10567000FA6802FB03F318460FF086FE03464FF06C
:10568000814118460FF088FF0346BB60B8680FF0F1
:105690000BFB09A3D3E900230FF05AFB03460C468A
:1056A000184621460FF066FD034618461437BD46DE
:1056B00090BD00BFAFF30080102384471B4710400C
:1056C00080B584B000AF7860124B1B68124AA2FB11
:1056D00003235B0B013BFB60104B114A1A607A6895
:1056E00013469B0013445B001A460C4BDA600B4ACE
:1056F000FB685360094B00221A61084B00229A6034
:10570000064808F0DBFF054809F08CF800BF1037A9
:10571000BD4680BDF80000205917B7D1100C0020FD
:105720000004004080B489B000AFF860B9607A60CE
:105730003B60FB687B61FB685A1CFA60BA68796859
:10574000B2FBF1F1786800FB01F1521A35498A5C2D
:105750001A70BA687B68B2FBF3F3BB60BB68002BBE
:10576000E9D1FB6800221A70FA687B69D31A3B61A1
:105770000023FB611AE07A69FB6913441B78FB760E
:105780007A69FB6913443969FA698A1A013A7969B5
:105790000A4412781A703A69FB69D31A013B7A6994
:1057A0001344FA7E1A70FB690133FB613B695A08A6
:1057B000FB699A42DFD83A693B689A422DD23B692D
:1057C000FB610EE0FA693B681A443B69D31A7A69B7
:1057D00013447969FA690A4412781A70FB69013B2B
:1057E000FB61FB69002BEDD0BB6A002B02D02023AC
:1057F000FB7601E03023FB760023FB6107E07A694A
:10580000FB691344FA7E1A70FB690133FB613A6845
:105810003B69D21AFB699A42F1D800BF2437BD46D2
:1058200080BC70470C01002080B487B000AF786066
:10583000396000237B617B685A1C7A601B78FB739C
:105840002EE0FB7B2F2B06D9FB7B392B03D8FB7B70
:10585000303B3B6118E03B68102B09D1FB7B402BB0
:1058600006D9FB7B462B03D8FB7B373B3B610BE028
:105870003B68102B17D1FB7B602B14D9FB7B662B6D
:1058800011D8FB7B573B3B613B687A6902FB03F213
:105890003B6913447B617B685A1C7A601B78FB73FD
:1058A000FB7B002BCDD17B6918461C37BD4680BCE5
:1058B000704700BF80B487B000AF786039600023C4
:1058C0007B613B68013B3B6118E07B697A6813446C
:1058D0001B78FB607B697A6813443A6979680A44EB
:1058E00012781A703B697A681344FA68D2B21A7057
:1058F0007B6901337B613B69013B3B617A693B69B1
:105900009A42E2DB00BF1C37BD4680BC704700BF37
:1059100080B586B000AFF860B9607A6000237B6123
:105920001DE07B695A1C7A611A46BB689818FA68B0
:105930001A4B83FB02139910D317C91A0B469B000D
:105940000B445B00D11ACBB23033DBB20370FB687F
:10595000124A82FB03129210DB17D31AFB60FB681A
:10596000002BDED107E07B695A1C7A611A46BB68BE
:10597000134430221A707A697B689A42F3DB7969A2
:10598000B868FFF797FF7B69BA68134400221A7062
:105990007B6918461837BD4680BD00BF67666666DE
:1059A00090B589B000AFF860B9607A60B8680FF060
:1059B0008FFE0346FB61F8690FF0E6FC03461946CB
:1059C000B8680FF02BFC0346BB610022F968F86948
:1059D000FFF79EFF78617B68002B22D07B69FA6815
:1059E00013442E221A707A684FF000000F4900F01D
:1059F0001FF803460C46184621460FF0BBFB034632
:105A00001946B8690FF014FD0346BB61B8690FF081
:105A10005FFE7B690133FA6813447A681946FFF721
:105A200077FF00BF2437BD4690BD00BF0000244073
:105A300090B589B000AFC7E902017A607B68002B9E
:105A4000B8BF5B42FB614FF000031B4CC7E9043455
:105A50001BE0FB6903F00103002B09D0D7E9022307
:105A6000D7E904010FF074F903460C46C7E9043482
:105A7000FB695B08FB61D7E90223D7E902010FF05C
:105A800067F903460C46C7E90234FB69002BE0D1F5
:105A90007B68002B09DAD7E904234FF000000649A0
:105AA0000FF080FA03460C4601E0D7E904341846AB
:105AB00021462437BD4690BD0000F03F80B485B03C
:105AC00000AF786039600023FB600023FB6007E0D3
:105AD000FB687A68134400221A70FB680133FB608C
